:100000000C942A000C9447000C9447000C94470071
:100010000C9447000C9447000C9447000C94470044
:100020000C9447000C9447000C9447000C94470034
:100030000C9447000C9488010C9447000C944700E2
:100040000C9447000C9447000C9447000C94470014
:100050000C94470011241FBECFE5D8E0DEBFCDBF12
:1000600011E0A0E6B0E0E8ECF0E102C005900D92EE
:10007000AC33B107D9F722E0ACE3B1E001C01D9287
:10008000AB32B207E1F70E9413040C9462080C949F
:10009000000088BB85B38C7F85BBAA9A82E08A95D5
:1000A000F1F700C0AA988FE697E10197F1F700C039
:1000B0000000089588BBA99885B3856085BB82E060
:1000C0008A95F1F700C0AA988FEC97E00197F1F7B5
:1000D00000C00000089584B3876084BB8FEF87BBA6
:1000E0008FE39CE90197F1F700C0000088E30E94CC
:1000F00049008CE00E94490086E00E94490081E0AE
:100100000E94490080E80E9449000895CF93DF9340
:10011000EC018881882331F021960E945A00899150
:100120008111FBCFDF91CF910895CF93DF93EA0147
:10013000813031F4862F8F7080680E94490007C09B
:10014000823029F4862F8F70806C0E944900CE0186
:100150000E948600DF91CF91089581E00E944900BE
:1001600008950F931F93CF93DF93CDB7DEB76497B6
:100170000FB6F894DEBF0FBECDBF10922A021092C8
:1001800029029F938F9380E690E09F938F938E0137
:100190000F5F1F4F1F930F930E948A05C8010E9493
:1001A00004050F900F900F900F900F900F90649692
:1001B0000FB6F894DEBF0FBECDBFDF91CF911F9178
:1001C0000F910895CF93DF9300D000D0CDB7DEB765
:1001D0002FEF84E39CE0215080409040E1F700C085
:1001E000000010922A0210922902E0912902F09157
:1001F0002A02E15CFE4F80818D3049F0E0912902B6
:10020000F0912A02E15CFE4F80818A3051F48091A6
:10021000290290912A02019690932A028093290242
:10022000E4CF60E870E08FE391E00E946805892BDD
:1002300009F466C0E0912902F0912A02E15CFE4FC8
:1002400080818C3291F08091290290912A0201964E
:1002500090932A0280932902E0912902F0912A02C8
:10026000E15CFE4F80818C3271F780912902909180
:100270002A02019690932A0280932902E091290292
:10028000F0912A02E15CFE4F80818D30E1F0DE01C9
:100290001196E0912902F0912A02E15CFE4F8081E3
:1002A0008D938091290290912A02019690932A02BF
:1002B00080932902E0912902F0912A02E15CFE4F2D
:1002C00080818D3031F7CE0101960E9435059093E3
:1002D0003D0180933C01EFE3F1E001900020E9F75C
:1002E0003197AF014F53514060E070E08FE391E0F0
:1002F0000E94530510922A021092290281E001C047
:1003000080E00F900F900F900F90DF91CF910895A4
:100310001F920F920FB60F9211248F939F93EF931A
:10032000FF93E0912902F0912A028CB1E15CFE4F2B
:1003300080838091290290912A02019690932A024B
:100340008093290281E080933E01FF91EF919F917C
:100350008F910F900FBE0F901F9018950F931F93C2
:10036000CF93DF93CDB7DEB764970FB6F894DEBFB7
:100370000FBECDBF9F938F9384E990E09F938F939F
:100380008E010F5F1F4F1F930F930E948A05C801B4
:100390000E9404050F900F900F900F900F900F90F8
:1003A00064960FB6F894DEBF0FBECDBFDF91CF913C
:1003B0001F910F9108950E94AD008CE990E00E947A
:1003C00004050895CF93DF9310922A021092290218
:1003D000E0912902F0912A02E15CFE4F80818D308C
:1003E00049F0E0912902F0912A02E15CFE4F808100
:1003F0008A3051F48091290290912A0201969093BB
:100400002A0280932902E4CF80EC0E944900C0E0D8
:10041000D0E019C0E0912902F0912A02E15CFE4F80
:1004200080810E945A008091290290912A020196AF
:1004300090932A02809329022196CF30D10519F496
:1004400080E80E944900E0912902F0912A02E15CD3
:10045000FE4F80818D30F1F610922A02109229020F
:10046000EFE3F1E001900020E9F73197AF014F533E
:10047000514060E070E08FE391E00E945305DF910E
:10048000CF9108956F927F928F929F92AF92BF9279
:10049000CF92DF92EF92FF920F931F93CF93DF9350
:1004A00000D0CDB7DEB7E12CF12C0F2EFFE3CF2E1D
:1004B000F1E0DF2EF02D612C712CF601019000206F
:1004C000E9F73197EF53F140C9F1AFE9BFE0119778
:1004D000F1F700C00000BFEFEB1AFB0AD6010D9048
:1004E0000020E9F71197AF53B140EA17FB0731F548
:1004F0001E161F061CF556018F01015C1E4F862C2F
:10050000972C8A818983F50181915F018A8342E07A
:1005100050E061EA70E0CE0101960E945A05892BF5
:1005200051F0C4010196F2E08F16910419F40E9473
:10053000E20113C04C01A016B10619F78FEC97E049
:100540000197F1F700C000009FEFE91AF90AA0E651
:10055000EA16AAEEFA0608F4B0CF0F900F90DF91DA
:10056000CF911F910F91FF90EF90DF90CF90BF90B0
:10057000AF909F908F907F906F90089580EC0E9435
:10058000490084EA90E00E9404052FEF84E39CE098
:10059000215080409040E1F700C000006AEA70E01E
:1005A0008FE391E00E946805892B69F10E94420265
:1005B00080EAEFE3F1E0DF011D928A95E9F7BFEFF2
:1005C00029E688E1B15020408040E1F700C00000FA
:1005D0000E94AD004DEA50E060E081E00E9495008D
:1005E00080EC0E94490087EB90E00E9404050E9485
:1005F00042029FEFA9E6B8E19150A040B040E1F778
:1006000000C00000089582EC90E00E948600B6CF02
:100610000F931F93CF93DF932FEF84E39CE0215040
:1006200080409040E1F700C0000068EC70E08FE38C
:1006300091E00E946805892B39F44EEC50E060E0AF
:1006400081E00E949500B9C010922A0210922902FE
:10065000E0912902F0912A02E15CFE4F80818D3009
:1006600099F0E0912902F0912A02E15CFE4F80812D
:100670008E3651F0E0912902F0912A02E15CFE4FA2
:1006800080818C3259F41CC08091290290912A02F9
:10069000019690932A0280932902DACF8091290251
:1006A00090912A02019690932A0280932902E09168
:1006B0002902F0912A02E15CFE4F80818C3271F7B1
:1006C0008091290290912A02029690932A028093A7
:1006D0002902AFEDB1E02CEE31E0E0912902F0917A
:1006E0002A02E15CFE4F80818D93809129029091D6
:1006F0002A02019690932A0280932902A217B30737
:1007000061F78091290290912A02019690932A0222
:1007100080932902E0912902F0912A02E25CFE4FC7
:1007200080818A3071F780EC0E9449000DEE11E063
:10073000C0E0D0E023C0E0912902F0912A02E15C00
:10074000FE4F80810E945A00E0912902F0912A0216
:10075000E15CFE4F8081F80181938F018091290235
:1007600090912A02019690932A0280932902219661
:10077000C031D10519F480E80E944900E0912902B6
:10078000F0912A02E15CFE4F80818D3019F0CF316B
:10079000D10589F610922A0210922902EFE3F1E0C6
:1007A00001900020E9F73197AF014F53514060E0CD
:1007B00070E08FE391E00E94530510923E01DF91BB
:1007C000CF911F910F9108950F931F93CF93DF93B4
:1007D000CDB7DEB72A970FB6F894DEBF0FBECDBFF8
:1007E0009F938F9389ED90E09F938F938E010F5F7E
:1007F0001F4F1F930F930E948A05C8010E94040592
:100800000E9408030F900F900F900F900F900F9081
:100810002A960FB6F894DEBF0FBECDBFDF91CF9101
:100820001F910F91089510922A02109229028CE3D1
:10083000EDEEF1E0DF011D928A95E9F70E946B0071
:1008400060E875E280E090E00E94D204789445EE82
:1008500050E060E081E00E949500BFEF2DE339E4B5
:10086000B15020403040E1F700C000000E94AD00D0
:1008700046EF50E060E081E00E9495000E94BE02D9
:100880000E94AD00DEE0CCE380913E01813009F0B2
:1008900074C00E94E200882309F46BC00E94AD007E
:1008A00049EF50E060E081E00E9495008FEF99E60B
:1008B000A8E181509040A040E1F700C000000E94F4
:1008C000AD0080913C0190913D010E94E403BFEF97
:1008D0002DE339E4B15020403040E1F700C0000082
:1008E00065E071E08DEE91E00E946805892B41F191
:1008F0008FED91E00E94AE010E94AD004DE051E00D
:1009000060E081E00E9495008FEF9CE2A1E3B1E0FE
:1009100081509040A040B040D9F700C000000E9434
:10092000DB0148E151E060E081E00E9495002FEF9B
:1009300039E688E1215030408040E1F700C00000F6
:100940000E94AD0080913C0190913D010E94B10058
:1009500042E251E060E081E00E9495000E94420284
:100960009FEFA9E6B8E19150A040B040E1F700C088
:10097000000010923E010E94AD004CE251E060E0A8
:1009800081E00E949500EFEDF1E0DF012D2F1D9237
:100990002A95E9F7EDEEF1E0DF012C2F1D922A9563
:1009A000E9F772CF2AB128692AB920B5266820BD97
:1009B000DC01CB01880F991FAA1FBB1F880F991F4D
:1009C000AA1FBB1F9C01AD01220F331F441F551FDF
:1009D000220F331F441F551F60E072E18AE790E049
:1009E0000E9413058FEF820F89B9DA01C9010197BF
:1009F000A109B109892F9A2FAB2FBB2780BD08957C
:100A00008CB95D9BFECF0895CF93DF93EC01888175
:100A1000882331F021960E94000589918111FBCF36
:100A2000DF91CF910895A1E21A2EAA1BBB1BFD01F5
:100A30000DC0AA1FBB1FEE1FFF1FA217B307E407BD
:100A4000F50720F0A21BB30BE40BF50B661F771F15
:100A5000881F991F1A9469F76095709580959095F5
:100A60009B01AC01BD01CF010895FC0188279927A6
:100A7000E89421912032E9F3293010F02E30C8F3A8
:100A80002B3241F02D3239F4689404C00E94820563
:100A9000820F911D219120532A30C0F31EF49095AE
:100AA00081959F4F0895DC0101C06D9341505040E6
:100AB000E0F70895FB01DC014150504030F08D918A
:100AC0000190801919F40020B9F7881B990B08953B
:100AD000FB0151915523A9F0BF01DC014D91451750
:100AE0004111E1F759F4CD010190002049F04D91F9
:100AF00040154111C9F3FB014111EFCF81E090E0B6
:100B0000019708957AE0979F902D879F802D910DF2
:100B100011240895AEE0B0E0E0E9F5E00C94390866
:100B20000D891E8986E08C831A8309838FEF9FE7E6
:100B30009E838D83AE01475E5F4F6F89788DCE01B6
:100B400001960E94AD052F813885F801E20FF31F51
:100B500010822E96E4E00C945508ACE0B0E0E3EB94
:100B6000F5E00C942B087C016B018A01FC011782D3
:100B70001682838181FFBDC1CE0101964C01F70130
:100B80009381F60193FD859193FF81916F018823F5
:100B900009F4ABC1853239F493FD859193FF8191BE
:100BA0006F01853229F4B70190E00E949507E7CFE5
:100BB000512C312C20E02032A0F48B3269F030F43B
:100BC000803259F0833269F420612CC08D3239F0C3
:100BD000803339F4216026C02260246023C028605D
:100BE00021C027FD27C030ED380F3A3078F426FFBA
:100BF00006C0FAE05F9E300D1124532E13C08AE028
:100C0000389E300D1124332E20620CC08E3221F418
:100C100026FD6BC1206406C08C3611F4206802C02A
:100C2000883641F4F60193FD859193FF81916F0120
:100C30008111C1CF982F9F7D9554933028F40C5F7C
:100C40001F4FFFE3F9830DC0833631F0833771F016
:100C5000833509F05BC022C0F801808189830E5F73
:100C60001F4F44244394512C540115C03801F2E025
:100C70006F0E711CF801A080B18026FF03C0652DA6
:100C800070E002C06FEF7FEFC5012C870E948A07DA
:100C90002C0183012C852F77222E17C03801F2E01A
:100CA0006F0E711CF801A080B18026FF03C0652D76
:100CB00070E002C06FEF7FEFC5012C870E947F07B5
:100CC0002C012C852068222E830123FC1BC0832D40
:100CD00090E048165906B0F4B70180E290E00E9417
:100CE00095073A94F4CFF50127FC859127FE819171
:100CF0005F01B70190E00E94950731103A94F1E04E
:100D00004F1A51084114510471F7E5C0843611F0AF
:100D1000893639F5F80127FF07C06081718182812A
:100D200093810C5F1F4F08C060817181072E000CFA
:100D3000880B990B0E5F1F4F2F76722E97FF09C0FD
:100D400090958095709561957F4F8F4F9F4F20684C
:100D5000722E2AE030E0A4010E94CD07A82EA81828
:100D600044C0853729F42F7EB22E2AE030E025C01A
:100D7000F22FF97FBF2E8F36C1F018F4883579F045
:100D8000B4C0803719F0883721F0AFC02F2F206111
:100D9000B22EB4FE0DC08B2D8460B82E09C024FF86
:100DA0000AC09F2F9660B92E06C028E030E005C02B
:100DB00020E130E002C020E132E0F801B7FE07C0D8
:100DC00060817181828193810C5F1F4F06C06081B9
:100DD000718180E090E00E5F1F4FA4010E94CD075B
:100DE000A82EA818FB2DFF777F2E76FE0BC0372D7F
:100DF0003E7FA51450F474FE0AC072FC08C0372D63
:100E00003E7E05C0BA2C372D03C0BA2C01C0B52CCC
:100E100034FF0DC0FE01EA0DF11D8081803311F415
:100E2000397E09C032FF06C0B394B39404C0832F47
:100E3000867809F0B39433FD13C030FF06C05A2CF6
:100E4000B31418F4530C5B18B32CB31468F4B70143
:100E500080E290E03C870E949507B3943C85F5CFF3
:100E6000B31410F43B1801C0312C34FF12C0B70189
:100E700080E390E03C870E9495073C8532FF17C0D5
:100E800031FD03C088E790E002C088E590E0B7013B
:100E90000CC0832F867859F031FF02C08BE201C06D
:100EA00080E237FD8DE2B70190E00E949507A5141E
:100EB00038F4B70180E390E00E9495075A94F7CF89
:100EC000AA94F401EA0DF11D8081B70190E00E941F
:100ED0009507A110F5CF332009F451CEB70180E278
:100EE00090E00E9495073A94F6CFF70186819781AA
:100EF00002C08FEF9FEF2C96E2E10C944708FC01B3
:100F00000590615070400110D8F7809590958E0F34
:100F10009F1F0895FC016150704001900110D8F7A7
:100F2000809590958E0F9F1F08950F931F93CF93D9
:100F3000DF93FB01238121FD03C08FEF9FEF28C0CA
:100F400022FF16C0468157812481358142175307FD
:100F500044F4A081B1819D012F5F3F4F31832083F5
:100F60008C93268137812F5F3F4F3783268310C0B4
:100F7000EB01092F182F0084F185E02D0995892BAD
:100F8000E1F68E819F8101969F838E83812F902F22
:100F9000DF91CF911F910F910895FA01AA27283070
:100FA00051F1203181F1E8946F936E7F6E5F7F4F36
:100FB0008F4F9F4FAF4FB1E03ED0B4E03CD0670FB2
:100FC000781F891F9A1FA11D680F791F8A1F911D05
:100FD000A11D6A0F711D811D911DA11D20D009F455
:100FE00068943F912AE0269F11243019305D319397
:100FF000DEF6CF010895462F4770405D4193B3E080
:101000000FD0C9F7F6CF462F4F70405D4A3318F026
:10101000495D31FD4052419302D0A9F7EACFB4E0D7
:10102000A6959795879577956795BA95C9F700978F
:101030006105710508959B01AC010A2E0694579530
:10104000479537952795BA95C9F7620F731F841F87
:10105000951FA01D08952F923F924F925F926F921D
:101060007F928F929F92AF92BF92CF92DF92EF9238
:10107000FF920F931F93CF93DF93CDB7DEB7CA1BB9
:10108000DB0B0FB6F894DEBF0FBECDBF09942A88E4
:10109000398848885F846E847D848C849B84AA848C
:1010A000B984C884DF80EE80FD800C811B81AA8119
:1010B000B981CE0FD11D0FB6F894DEBF0FBECDBFE4
:0810C000ED010895F894FFCF43
:1010C80041542B434D47443D25640D0041542B4367
:1010D8004D4744413D2244454C20414C4C220D0093
:1010E800434D54493A0041542B434D47533D222523
:1010F80073220D0041544425733B0D004154480DA3
:10110800000D0A00415445300D004F4B00546578DE
:1011180074204D6F64650041542B434D47463D3163
:101128000D004572726F72002B434D4752004E6F8F
:10113800206D6573736167650041542B434D4752B9
:101148003D25640D0047534D20496E697469616CF3
:10115800697A696E67004154006E6577206D657322
:10116800736167650063616C6C206D650043616C39
:101178006C696E672E2E2E0048616E672043616C85
:101188006C00436C656172206D73670077616974E8
:0C119800696E6720666F72206D7367003F
:00000001FF
