S01300004C43445F444953504C41592E73726563C9
S11300000C942A000C943C000C943C000C943C008E
S11300100C943C000C943C000C943C000C943C006C
S11300200C943C000C943C000C943C000C943C005C
S11300300C943C000C943C000C943C000C943C004C
S11300400C943C000C943C000C943C000C943C003C
S11300500C943C0011241FBECFE5D8E0DEBFCDBF19
S113006020E0A0E6B0E001C01D92A136B207E1F79E
S11300700E944E010C94C0010C94000094EA96BFB7
S113008006B607FEFDCF91B1987F983011F09031FC
S113009079F483B984E886BF06B607FEFDCF91B133
S11300A0987F983139F081E0903429F480E0089504
S11300B081E0089580E0089584E986BF06B604FCD3
S11300C0FDCF089583B984E886BF06B607FEFDCF49
S11300D091B1987F81E0983209F480E00895CF933C
S11300E0DF93C82F8EE40E943E00DC2FD07F8091E6
S11300F0600084608D2B0E94620089EF90E001977C
S1130100F1F700C00000809160008D2B0E94620016
S113011089EF90E00197F1F700C0000090E1C99FDA
S1130120E00111248091600084608C2B0E946200A5
S113013089EF90E00197F1F700C000008091600022
S11301408C2B0E94620089EF90E00197F1F700C0C8
S113015000000E945C00DF91CF910895CF93C82FD7
S11301608EE40E943E00C07F8091600084608C2BEE
S11301700E94620089EF90E00197F1F700C000004F
S1130180809160008C2B0E94620089EF90E00197BF
S1130190F1F700C000000E945C00CF9108958093A5
S11301A0600080E30E94AE0080E30E94AE0080E322
S11301B00E94AE0080E20E94AE0087E893E10197BE
S11301C0F1F700C0000088E20E946F008CE00E94FA
S11301D06F0086E00E946F0081E00E946F00089526
S11301E0CF93DF93C82F8EE40E943E00DC2FD07F94
S11301F080916000D82B8D2F85600E946200DA7F89
S1130200809160008D2B0E94620080E1C89F900164
S11302101124C0916000C560C22B8C2F0E94620023
S11302202C2F2A7F80916000822B0E9462000E9402
S11302305C00DF91CF910895623031F0633031F08A
S1130240613029F4805C03C08C5E01C08C5A8068E4
S11302500E946F00089581E00E946F0008951F932B
S1130260CF93DF930097B1F0EC0110E007C0FE01DB
S1130270E20FF31F80810E94F0001F5F212F30E006
S1130280FE0101900020E9F73197EC1BFD0B2E17BE
S11302903F0768F3DF91CF911F9108950F931F9348
S11302A0CF93DF93CDB7DEB72A970FB6F894DEBFAE
S11302B00FBECDBF88E00E94CF000E942B0160E0FA
S11302C080E00E941C0100E010E04AE0BE016F5F84
S11302D07F4FC8010E948B01CE0101960E942F011D
S11302E02FEF80E792E0215080409040E1F700C07A
S11302F000000F5F1F4F0A30110539F780E090E0CE
S11303002A960FB6F894DEBF0FBECDBFDF91CF9112
S11303101F910F910895BB274A3031F4992322F499
S1130320BDE2909581959F4F0C949701BB27FB01EB
S11303305527AA27880F991FAA1FA41710F0A41BDA
S113034083955051B9F7A05DAA3308F0A95DA19334
S1130350009779F7B111B1931192CB010C94B001CC
S1130360DC01FC01672F71917723E1F7329704C018
S11303707C916D9370836291AE17BF07C8F30895A3
S1070380F894FFCF1B
S9030000FC
