:100000000C942A000C94AC000C9447000C9447000C
:100010000C9447000C9447000C9447000C94470044
:100020000C9447000C9447000C9447000C94470034
:100030000C9447000C9447000C9447000C94470024
:100040000C9447000C9447000C9447000C94470014
:100050000C94470011241FBECFE5D8E0DEBFCDBF12
:1000600010E0A0E6B0E0EAE8F3E002C005900D92EF
:10007000A038B107D9F720E0A0E8B0E001C01D9298
:10008000A438B207E1F70E9427010C94C3010C9435
:100090000000C59A00000000C59808951ABAC49AD5
:1000A000C398DF9B04C00E944900DF99FCCF8FEF0B
:1000B0008ABB0895CF93C82F0E944E00CBBBC49833
:1000C000C3980E9449001BBACF91089587B38863F3
:1000D00087BB8FE295E70197F1F700C0000081E050
:1000E0000E945A008FE99FE00197F1F700C00000DD
:1000F00088E30E945A0095E89A95F1F700008EE097
:100100000E945A0085E88A95F1F700000895CF9380
:10011000C82F0E944E00CBBBC498C39A0E944900CE
:100120001BBACF910895CF93DF93EC018881882388
:1001300031F021960E94870089918111FBCFDF91D8
:10014000CF910895E62FF0E0E15AFF4F815890815A
:10015000890F0E945A0008951F920F920FB60F92B6
:1001600011248F939F938091800090918100892B1F
:1001700051F48EB581608EBD81E090E09093810056
:10018000809380000DC01EBC8CB59DB590938300FC
:10019000809382001DBC1CBC1092810010928000D4
:1001A0009F918F910F900FBE0F901F9018950F93F6
:1001B0001F93CF93DF93CDB7DEB765970FB6F89453
:1001C000DEBF0FBECDBF8C01CB014AE0BE016F5E2A
:1001D0007F4F04970E948E0182E690E00E94930078
:1001E000CE0141960E94930062E081E00E94A2004D
:1001F00081E790E00E949300C8016AE370E00E94EA
:100200006601CB014AE0BE016F5F7F4F0E948E0105
:10021000CE0101960E9493008BE790E00E9493002C
:1002200062E08DE00E94A2008DE790E00E949300C2
:1002300061E081E00E94A20065960FB6F894DEBFEF
:100240000FBECDBFDF91CF911F910F9108950E94F6
:1002500066008BEF81BB2FE738E381E0215030400F
:100260008040E1F700C000008BB780648BBF85B78A
:10027000816085BF789401E010E0C5E0D0E022B352
:10028000C8010C2E02C0880F991F0A94E2F7922F22
:10029000982B92BB28E22A95F1F792B38095892397
:1002A00082BBBE0180918200909183000E94D700A2
:1002B0003FEF80E792E0315080409040E1F700C08E
:1002C00000002196C830D105D1F6D7CF97FB072E75
:1002D00016F4009407D077FD09D00E947A0107FC3C
:1002E00005D03EF4909581959F4F08957095619546
:1002F0007F4F0895AA1BBB1B51E107C0AA1FBB1F5C
:10030000A617B70710F0A61BB70B881F991F5A95A1
:10031000A9F780959095BC01CD010895BB274A307F
:1003200031F4992322F4BDE2909581959F4F0C946E
:100330009A01BB27FB015527AA27880F991FAA1FDF
:10034000A41710F0A41B83955051B9F7A05DAA33F0
:1003500008F0A95DA193009779F7B111B1931192BB
:10036000CB010C94B301DC01FC01672F7191772361
:10037000E1F7329704C07C916D9370836291AE1760
:0A038000BF07C8F30895F894FFCFFB
:10038A000040556C747261536F6E6963202D203082
:10039A000044697374616E63653D002000636D00FB
:00000001FF
