S0110000636F6C6F725F53656E2E737265636F
S11300000C942A000C9434000C9434000C943400A6
S11300100C9434000C9434000C9434000C9434008C
S11300200C9434000C9434000C9434000C9434007C
S11300300C9434000C9434000C9434000C9434006C
S11300400C9434000C9434000C9434000C9434005C
S11300500C94340011241FBECFE5D8E0DEBFCDBF21
S11300600E9438010C9430030C940000CF92DF926C
S1130070EF92FF920E9476018FE39CE90197F1F7DA
S113008000C000000E9482016B017C018FE39CE9A7
S11300900197F1F700C000000E948201C60ED71E2E
S11300A0E81EF91E8FE39CE90197F1F700C00000F8
S11300B00E9482016C0D7D1D8E1D9F1D0E944102B8
S11300C023E333E343E550E40E94A0010E941202BB
S11300D0FF90EF90DF90CF9008958F929F92AF9210
S11300E0BF92CF92DF92EF92FF920F930E94790119
S11300F08FE39CE90197F1F700C000000E948201A0
S11301006B017C018FE39CE90197F1F700C00000CB
S11301100E948201C60ED71EE81EF91E8FE39CE9D9
S11301200197F1F700C000000E9482016C0D7D1D53
S11301308E1D9F1D2BEA3AEA4AEA5AEA0E94CF0230
S113014000E20E94FC02822E932EA42EB52EC5013D
S1130150B40196958795779567950F91FF90EF90E9
S1130160DF90CF90BF90AF909F908F900895CF92E3
S1130170DF92EF92FF920E947C018FE39CE901974A
S1130180F1F700C000000E9482016B017C018FE343
S11301909CE90197F1F700C000000E948201C60E9D
S11301A0D71EE81EF91E8FE39CE90197F1F700C002
S11301B000000E9482016C0D7D1D8E1D9F1D0E94FA
S11301C0410226E636E646E850E40E94A0010E9479
S11301D01202FF90EF90DF90CF9008958F929F923C
S11301E0AF92BF92CF92DF92EF92FF920F930E9451
S11301F07F018FE39CE90197F1F700C000000E94A2
S113020082016B017C018FE39CE90197F1F700C047
S113021000000E948201C60ED71EE81EF91E8FE35D
S11302209CE90197F1F700C000000E9482016C0D67
S11302307D1D8E1D9F1D2BEA3AEA4AEA5AEA0E9466
S1130240CF0200E20E94FC02822E932EA42EB52E31
S1130250C501B40196958795779567950F91FF90A1
S1130260EF90DF90CF90BF90AF909F908F900895C4
S11302700E947201D1E0C0E0DB9A0E94EE006B01A3
S11302807C012FEF81EE94E0215080409040E1F713
S113029000C00000DB980E94EE00C61AD70AE80AE4
S11302A0F90A21E4C2162FE1D206E104F10488F030
S11302B0DB9A0E9436000E946D000E94B700DB9812
S11302C08FEF97EA21E6815090402040E1F700C08B
S11302D000008D2FCD0FCF3011F0C111CDCFD82F0D
S11302E0D195CACFD09AD19AD39A0895D898D9984B
S11302F00895D89AD99A0895D898D99A0895D89AE9
S1130300D9980895CA9902C0CA9BFECFCA99FECF54
S11303101DBC1CBC81E08EBDCA9BFECF1EBC6CB54F
S11303207DB580E090E00E9441029B01AC0160E059
S113033074E284EF9AE40E94A0010E9412020895DC
S11303400E94B4010C9495020E948E0258F00E94FF
S1130350870240F029F45F3F29F00C947E0251118A
S11303600C94C9020C9484020E94A60268F3992397
S1130370B1F3552391F3951B550BBB27AA2762179D
S11303807307840738F09F5F5F4F220F331F441FAA
S1130390AA1FA9F335D00E2E3AF0E0E832D09150DE
S11303A05040E695001CCAF72BD0FE2F29D0660FCB
S11303B0771F881FBB1F261737074807AB07B0E80E
S11303C009F0BB0B802DBF01FF2793585F4F3AF014
S11303D09E3F510578F00C947E020C94C9025F3F55
S11303E0E4F3983ED4F3869577956795B795F7959A
S11303F09F5FC9F7880F911D9695879597F9089582
S1130400E1E0660F771F881FBB1F6217730784071D
S1130410BA0720F0621B730B840BBA0BEE1F88F72C
S1130420E09508950E94AE0288F09F5798F0B92F86
S11304309927B751B0F0E1F0660F771F881F991F15
S11304401AF0BA95C9F714C0B13091F00E94C802ED
S1130450B1E008950C94C802672F782F8827B85FFD
S113046039F0B93FCCF3869577956795B395D9F76D
S11304703EF490958095709561957F4F8F4F9F4F77
S11304800895E89409C097FB3EF490958095709583
S113049061957F4F8F4F9F4F9923A9F0F92F96E9CC
S11304A0BB279395F695879577956795B795F11141
S11304B0F8CFFAF4BB0F11F460FF1BC06F5F7F4FDE
S11304C08F4F9F4F16C0882311F096E911C07723F0
S11304D021F09EE8872F762F05C0662371F096E8F9
S11304E0862F70E060E02AF09A95660F771F881FC8
S11304F0DAF7880F9695879597F9089597F99F6786
S113050080E870E060E008959FEF80EC0895002497
S11305100A941616170618060906089500240A9464
S113052012161306140605060895092E0394000CEA
S113053011F4882352F0BB0F40F4BF2B11F460FF79
S113054004C06F5F7F4F8F4F9F4F089557FD9058A2
S1130550440F551F59F05F3F71F04795880F97FB83
S1130560991F61F09F3F79F087950895121613063D
S11305701406551FF2CF4695F1DF08C0161617066C
S11305801806991FF1CF86957105610508940895A1
S1130590E894BB2766277727CB0197F90895E89459
S11305A0DF93CF93FC01DB010E9418037F936F93C9
S11305B0E9019A01AC01BF93AF933F932F93DF01FD
S11305C00E94180326F46C1B7D0B820B930B9E0177
S11305D0EB01FC010E942703AF91BF912F913F9142
S11305E00E942703BE01CF01F9012F913F91CF91C2
S11305F0DF91089597FB10F8169400080F930830C4
S113060098F00850232F342F452F562F672F782F1B
S1130610892F902DF4CF05949795879577956795B5
S113062057954795379527950A95AAF70F910895F9
S1130630A29FB001B39FC001A39F700D811D11241F
S1130640911DB29F700D811D1124911D08950E946A
S11306501803460F571FC81FD91F08F43196089571
S1070660F894FFCF38
S9030000FC
