S0140000424C494E4B494E475F4C45442E737265638E
S11300000C942A000C9434000C9434000C943400A6
S11300100C9434000C9434000C9434000C9434008C
S11300200C9434000C9434000C9434000C9434007C
S11300300C9434000C9434000C9434000C9434006C
S11300400C9434000C9434000C9434000C9434005C
S11300500C94340011241FBECFE5D8E0DEBFCDBF21
S11300600E9436000C944F000C94000084E287BB7D
S113007094E080E298BB2FE33DE043E02150304020
S11300804040E1F700C0000088BB2FE33DE043E0BF
S1130090215030404040E1F700C00000EBCFF8941D
S10500A0FFCF8C
S9030000FC
