S01400006164635F64656D6F5F365F322E73726563BE
S11300000C942A000C943F000C943F000C943F0085
S11300100C943F000C943F000C943F000C943F0060
S11300200C943F000C943F000C943F000C943F0050
S11300300C943F000C943F000C943F000C943F0040
S11300400C943F000C943F000C943F000C943F0030
S11300500C943F0011241FBECFE5D8E0DEBFCDBF16
S113006010E0A0E6B0E0E0ECF0E002C005900D92F4
S1130070A036B107D9F70E9441000C945E000C949D
S1130080000080E181BBD09880E487B987E886B915
S113009087B1807E87B987B187B9369A349BFECF02
S11300A0349A84B195B1833A23E0920710F4949A78
S11300B0EFCF833A934061F39498EACFF894FFCF5B
S9030000FC
