:100000000C9434000C943E000C943E000C943E0082
:100010000C943E000C943E000C943E000C943E0068
:100020000C943E000C943E000C943E000C943E0058
:100030000C943E000C943E000C943E000C943E0048
:100040000C943E000C943E000C943E000C943E0038
:100050000C943E000C943E000C943E000C943E0028
:100060000C943E000C943E0011241FBECFEFD8E04C
:10007000DEBFCDBF0E9488000C94CC000C94000021
:1000800082309105C1F08330910541F10197C9F5A6
:100090008FEB92E1909389008093880081E088B98A
:1000A0002AEA36EE86E991E02150304080409040C7
:1000B000D9F7000008958FE99FE09093890080931D
:1000C000880082E088B92AEA36EE86E991E021507C
:1000D000304080409040D9F7000008958FE79CE0C1
:1000E000909389008093880084E088B92AEA36EEEC
:1000F00086E991E02150304080409040D9F70000DF
:1001000008958FE39CE90197F1F700C0000008957E
:10011000219A84B1847084B984B1887084B984B11F
:10012000807184B9E0E8F0E0808182688083E1E852
:10013000F0E080818A6180838FE39CE9909387005F
:100140008093860023B183B18870482F50E093B12B
:100150009071692F70E022FF09C0452BC1F4672B15
:10016000B1F481E090E00E94400011C0882339F092
:10017000672B29F482E090E00E94400008C0452BE4
:1001800031F4992321F083E090E00E94400082E066
:0C01900090E00E944000D6CFF894FFCF12
:00000001FF
